:100000000C943A000C9457000C9457000C94570031
:100010000C9457000C9457000C9457000C94570004
:100020000C9457000C9457000C9457000C945700F4
:100030000C9457000C9457000C9457000C945700E4
:100040000C9457000C9457000C9457000C945700D4
:100050000C9457000C9457000C9457000C945700C4
:100060000C9457000C9457000C9457000C945700B4
:100070000C94570011241FBECFEFD4E0DEBFCDBFDC
:1000800011E0A0E0B1E0E0EFFAE002C005900D92CF
:10009000A439B107D9F721E0A4E9B1E001C01D926C
:1000A000A53AB207E1F70E941E040C9476050C9461
:1000B00000009C01FC01FF2784A1832B84A395A150
:1000C000892F832B85A381E0089583E090E40E942B
:1000D000590080E090E80E94590083E090E10E947E
:1000E000590083E090E80E94590083E090E20E946A
:1000F000590080E090E40E94590080E090E20E9464
:10010000590080E090E10E94590080E098E00E9450
:10011000590080E094E00E94590080E092E00E9443
:10012000590080E091E00C945900E1E6F0E080E8AD
:1001300080831082A89584B7877F84BFE0E6F0E0D3
:10014000808188618083108208951092800084E00D
:100150008093810010928500109284000895809110
:100160008400909185000895AC0180918400909165
:1001700085009C01241B350B283E3340B0F70895C1
:100180002091840030918500820F931F0C94B4005D
:10019000CF93DF93EC010E94A5009E0140E050E068
:1001A00062E17AE780E090E00E94350530939701A4
:1001B00020939601DF91CF910895809194019091C1
:1001C00095010E94B4002091940130919501809195
:1001D000960190919701820F931F909395018093C0
:1001E000940108956230710519F170F46130710560
:1001F00059F5FC01FF2724A1392F3095922F932325
:1002000094A385A183231DC06330710541F0643040
:100210007105D1F4FC01FF2784A1892B0FC0FC01DB
:10022000FF2784A1892B84A385A19095892309C0E8
:10023000FC01FF2784A1292F2095822384A385A177
:10024000892B85A381E0089580E00895E82FF0E0F0
:10025000EE0FFF1FE856FE4F8081882321F0918129
:1002600081E0892702C080E090E081700895E82F46
:10027000F0E0EE0FFF1FE856FE4F8081811102C0B3
:10028000818102C080E090E081700895E82FF0E065
:10029000EE0FFF1FE856FE4F80810895E82FF0E033
:1002A000EE0FFF1FE856FE4F908181E089270895E9
:1002B0007F928F929F92AF92BF92CF92DF92EF92F6
:1002C000FF920F931F93CF93DF93C8E9D1E055E1DD
:1002D000C52E51E0D52E66E0762E88818983F60101
:1002E000019111916F015801BB24F50124A1E12E68
:1002F000FF2485A190E08E219F2130E02E213F2117
:10030000232B31F0892B51F433E0832E912C0DC037
:10031000892B41F488248394912C07C094E0892E82
:10032000912C03C082E0882E912C64E070E0C8011B
:100330000E94F20062E070E0C8010E94F200872D86
:100340008A95F1F7F50183A190E0E822F92281E096
:10035000EF2809F080E08883B401C8010E94F20010
:100360002296F1E0C23ADF0709F0B7CFDF91CF91D3
:100370001F910F91FF90EF90DF90CF90BF90AF90C3
:100380009F908F907F90089508950C942F020C9465
:1003900050020C9435020C943B020C9441020E94D2
:1003A00041020E943B028823E1F38CE291E0019735
:1003B000F1F70E942F0281110C94C70108950C944B
:1003C0005702CF93DF9300D01F92CDB7DEB7809155
:1003D0001F0190912001A091210189839A83AB8311
:1003E000509A589A0E94CC028FE690E00E946302D5
:1003F00081E090E00E94BB0261E070E081E090E06B
:100400000E94A7020E949302CE0101960E94170249
:100410000F900F900F90DF91CF9108959C01215084
:1004200031093093CD0081508093CC000895CF9353
:10043000DF93EC01888199810E940E028A819BEFF3
:10044000980F943008F088E098E19093C9008550A7
:10045000880F8093CA0081E0DF91CF910895809149
:10046000C800881F8827881F08958091C80085FBD1
:10047000882780F908958091C80086FB882780F935
:100480000895CF93C82F0E9435028823E1F380910D
:10049000C80080648093C800C093CE00CF910895B7
:1004A0008091C80087FFFCCF8091CE000895CF9344
:1004B000DF93EC018991882319F00E944102FACF61
:1004C000DF91CF910895CF93DF931F92CDB7DEB721
:1004D0009E012F5F3F4F45E062E271E00E94D8022B
:1004E00091E0980F909300019981915097BD18BCAD
:1004F00095B5977039F095B5209100012770987FD8
:10050000922B95BD298130E0E82FF0E0EE5DFE4FA3
:10051000C901008002C0880F991F0A94E2F70F906A
:10052000DF91CF91089585B3897F85BB85B5909183
:1005300000019770887F892B85BD089585B5887FD8
:1005400085BD089585B382FB882780F908950097BB
:1005500019F0019741F0089584B58F736295660F85
:10056000660F607C05C084B563706295607F8F7C88
:10057000682B64BD0895009741F0019759F484B544
:100580008E7F84BD84B5826002C084B58C7F84BDBB
:1005900081E0089580E0089514BC15BC16BC18BC19
:1005A00084B58E7F84BD84B5826084BD81E008956A
:1005B000CF93DF93DC01FB0160E070E080E0C1E0FD
:1005C000D0E08417C9F09191BE01092E02C0660FD8
:1005D000771F0A94E2F76F5F7F4F769567956A0FF2
:1005E0007B1F02C0769567959A95E2F76F3F71057C
:1005F00019F010F08F5FE5CFF9016083DF91CF91A3
:100600000895811105C0662311F0429A0895429819
:1006100008953A9A429A089581110DC08091A201DD
:10062000882329F09091A30181E0892702C080E00E
:1006300090E08170089580E0089581110BC0809151
:10064000A201811103C08091A30102C080E090E06B
:100650008170089580E00895811103C08091A20106
:10066000089580E00895811105C09091A20181E074
:100670008927089580E00895E2EAF1E0808181838E
:1006800089B1881F8827881F8083089557985F98AD
:100690000895E091A401F0E0EE0FFF1FE95DFE4F29
:1006A00020813181F901FF2795A1932B95A3E1E3E7
:1006B000F1E020E030E090E0AC01022E02C0559560
:1006C00047950A94E2F740FF0AC040815181DA0160
:1006D000BB2795964C9195975095452308C040812E
:1006E0005181DA01BB2795964C919597452B9596AC
:1006F0004C932F5F3F4F329627303105E9F6E62FB6
:10070000F0E0EE0FFF1FE95DFE4F80819181FC015B
:10071000FF2785A19095892385A36093A40108955F
:100720000F931F93CF93DF93C82FD62F142F022F31
:1007300021112CC081E00E942601882321F0DF5F77
:10074000D43008F0D1E083E00E942601882319F01C
:10075000D15009F4D3E084E00E942601082F111142
:1007600017C0D13029F4EC2FF0E0E058FE4F28C03C
:10077000D23029F4EC2FF0E0E558FE4F21C0D33001
:1007800019F5EC2FF0E0EA58FE4F1AC04423E1F0CF
:10079000D13039F4113071F4EC2FF0E0EF58FE4F06
:1007A0000FC0D230F1F4113029F5EC2FF0E0EE5902
:1007B000FE4F06C0123071F4EC2FF0E0E459FE4F0A
:1007C0006C2F80810E94490361E06C0F653070F1ED
:1007D00060E02CC01330C1F7EC2FF0E0E959FE4F78
:1007E000EFCFD33089F7113099F4EC2FF0E0ED5AC8
:1007F000FE4FE6CF123029F4EC2FF0E0E35AFE4F23
:10080000DFCF133009F7EC2FF0E0E85AFE4FD8CFD6
:10081000123029F4EC2FF0E0E25BFE4FD1CF133021
:1008200099F6EC2FF0E0E75BFE4FCACF7D2F812FCA
:10083000902FDF91CF911F910F910895CF93DF9368
:1008400000D000D0CDB7DEB70E94C4010E94950051
:1008500084EF91E00E94C8000E9465000E94090395
:100860000E94E1010E94460360E080E00E940103D3
:10087000B12CE12C21E02C8310E01B8286E48A83DA
:1008800026E4298300E0A12CF12CC12C9924939417
:100890000E94DD000E945801992009F460C08B81FC
:1008A000E82FF0E0E05FFE4F682F80810E9449034F
:1008B0002B812F5F2B83253008F01B8261E080E0C5
:1008C0000E9401030E943C0380E00E940C038823E5
:1008D00029F084E50E94CF0184E589830E94C50147
:1008E0008823A9F10E94C701843589F584E58A83AC
:1008F00024ECC22E29E0D22E2B81822F90E0922E62
:1009000093942981FC01243561F4E55FFE4F6B81EE
:1009100080810E9449039B82892D853060F01B8273
:100920000AC0EF5FFE4F6B8180810E9449039B826A
:10093000292D2530A0F70E94DD000E94580181E09A
:10094000C81AD108C9F60E946500912C0AC02981F5
:10095000243571F22A81243559F299249394CC20BC
:10096000D1F0B11016C00E94650060E080E00E94E6
:10097000010320E04E2D6C81812F0E949003162FE1
:100980007C83E82EB92E992321F00E946500C12CAA
:1009900004C0CC24C394FF2069F0A11007C061E01B
:1009A00080E00E9401038C810E94CF01FF24F39418
:1009B000AA24A3940E94C501882329F0011103C031
:1009C0000E94C701082FAA2039F0D02E8FEF800F88
:1009D000833048F000E00AC0FF2041F0011109C057
:1009E000FF24F39403C0F11005C0E02EDE2CED2CA3
:1009F0004FCFDE2C60E080E00E94010384ECE82E03
:100A000089E0F82E0E94DD002B2D4D2D6C81812F69
:100A10000E949003162F7C83D82EB92E21E0E21A73
:100A2000F10881F794ECE92E99E0F92E61E080E07D
:100A30000E9401030E94DD000E9465008B81E82F67
:100A4000F0E0EA5FFE4F682F80810E9449032B810E
:100A50002F5F2B83253008F01B8281E0E81AF10814
:100A600029F70E946500F12CC2CF052E97FB1EF4DA
:100A700000940E944C0557FD07D00E94540507FCC6
:100A800003D04EF40C944C0550954095309521952B
:100A90003F4F4F4F5F4F08959095809570956195AA
:100AA0007F4F8F4F9F4F0895A1E21A2EAA1BBB1BA9
:100AB000FD010DC0AA1FBB1FEE1FFF1FA217B3072A
:100AC000E407F50720F0A21BB30BE40BF50B661F40
:100AD000771F881F991F1A9469F760957095809504
:100AE00090959B01AC01BD01CF010895F894FFCF13
:100AF00001070902040F38242424380206020207E1
:100B0000040E15040403800340032000800310D06A
:100B10000008000306080A03400080031003800356
:100B20002000400020001000080004000200011016
:100B30001010101C22222A2A145555227777575755
:100B4000277777505727777075757277777777772C
:100B5000777770777777700575727707077777778C
:100B60000700777777005050207070707070707049
:100B700000707070000505020707070707070700E8
:040B8000070707005C
:00000001FF
